S010000032373436363932392E7372656367
S11300000C942A000C9447000C9447000C9447006D
S11300100C9447000C9447000C9447000C94470040
S11300200C9447000C9447000C9447000C94470030
S11300300C9447000C9447000C9447000C94470020
S11300400C9447000C9447000C9447000C94470010
S11300500C94470011241FBECFE5D8E0DEBFCDBF0E
S113006011E0A0E6B0E0EAE8FEE002C005900D92DF
S1130070A230B107D9F721E0A2E0B1E001C01D929E
S1130080A331B207E1F70E9451040C9443070C9486
S113009000009C0183E083BF83E808C082BF98B757
S11300A0916098BFA89508B600FEFDCF2150310994
S11300B0A8F713BE0895E82F14BA15BA85B321E042
S11300C030E0A9010E2E02C0440F551F0A94E2F736
S11300D0482B45BB94B36C5F7F4F02C0220F331F84
S11300E06A95E2F7922B94BB95B32095292325BBFF
S11300F093B3892F90E002C095958795EA95E2F72E
S113010021E0822781700895CF92DF92EF92FF92CF
S11301100F931F93CF93DF9300E010E0C12CD12CF9
S113012016C0FC2EBE01C8010E945B00882331F07A
S1130130F3948E2D880F880F8F0D0DC02196C43037
S1130140D10579F70F5F1F4F0430110521F0E02E20
S1130150CC2DDD2DE6CFDF91CF911F910F91FF9034
S1130160EF90DF90CF90089580916A0090916B009A
S11301708A3091050CF479C02091680030916900AF
S11301802A303105CCF140916600509167004A3025
S11301905105CCF05F934F933F932F939F938F938D
S11301A08CE690E09F938F9382E091E09F938F93EE
S11301B00E946B048DB79EB70A960FB6F8949EBF43
S11301C00FBE8DBFCAC05F934F933F932F939F93EE
S11301D08F9388E790E09F938F9382E091E09F93C1
S11301E08F930E946B048DB79EB70A960FB6F8944E
S11301F09EBF0FBE8DBFB1C0409166005091670095
S11302004A305105CCF05F934F933F932F939F93C4
S11302108F9384E890E09F938F9382E091E09F9383
S11302208F930E946B048DB79EB70A960FB6F8940D
S11302309EBF0FBE8DBF91C05F934F933F932F938B
S11302409F938F9380E990E09F938F9382E091E056
S11302509F938F930E946B048DB79EB70A960FB637
S1130260F8949EBF0FBE8DBF78C020916800309176
S113027069002A303105CCF1409166005091670045
S11302804A305105CCF05F934F933F932F939F9344
S11302908F938CE990E09F938F9382E091E09F93FA
S11302A08F930E946B048DB79EB70A960FB6F8948D
S11302B09EBF0FBE8DBF51C05F934F933F932F934B
S11302C09F938F9388EA90E09F938F9382E091E0CD
S11302D09F938F930E946B048DB79EB70A960FB6B7
S11302E0F8949EBF0FBE8DBF38C0409166005091F8
S11302F067004A305105CCF05F934F933F932F939F
S11303009F938F9384EB90E09F938F9382E091E08F
S11303109F938F930E946B048DB79EB70A960FB676
S1130320F8949EBF0FBE8DBF18C05F934F933F9349
S11303302F939F938F9380EC90E09F938F9382E011
S113034091E09F938F930E946B048DB79EB70A969A
S11303500FB6F8949EBF0FBE8DBF82E091E00E945D
S11303604004089580916400909165008A3091055D
S11303700CF441C020916200309163002A303105B1
S1130380ECF0409161004F93409160004F933F9394
S11303902F939F938F938CEC90E09F938F9382E0A5
S11303A091E09F938F930E946B048DB79EB70A963A
S11303B00FB6F8949EBF0FBE8DBF5DC04091610023
S11303C04F93409160004F933F932F939F938F934C
S11303D088ED90E09F938F9382E091E09F938F93B9
S11303E00E946B048DB79EB70A960FB6F8949EBF11
S11303F00FBE8DBF40C020916200309163002A304F
S11304003105ECF0409161004F93409160004F93AF
S11304103F932F939F938F9384EE90E09F938F93BA
S113042082E091E09F938F930E946B048DB79EB7F7
S11304300A960FB6F8949EBF0FBE8DBF1CC04091A4
S113044061004F93409160004F933F932F939F938C
S11304508F9380EF90E09F938F9382E091E09F933E
S11304608F930E946B048DB79EB70A960FB6F894CB
S11304709EBF0FBE8DBF60E080E00E942C0482E02E
S113048091E00E94400460E081E00E942C04089501
S1130490809162009091630001968E31910529F05C
S11304A090936300809362000FC081E090E090938A
S11304B063008093620080916400909165000196CE
S11304C0909365008093640080916400909165002E
S11304D00C9779F481E090E0909365008093640038
S11304E080916000909161000196909361008093E7
S11304F060004091600050916100609162007091D1
S1130500630080916400909165000E94B201089597
S11305100E9484000E94B20180916600909167005D
S113052001968C33910529F09093670080936600BF
S11305300DC010926700109266008091680090913F
S11305406900019690936900809368008091680027
S113055090916900CC9769F4109269001092680038
S113056080916A0090916B00019690936B00809348
S11305706A0080916A0090916B00489731F4109260
S11305806B0010926A000E944802409166005091EC
S11305906700609168007091690080916A00909191
S11305A06B000E94B40088EE93E00E94490060E072
S11305B081E00E942C0408958130A1F480916400AC
S11305C0909165008C30910539F481E090E090932E
S11305D0650080936400089501969093650080936C
S11305E0640008958230A1F48091620090916300C8
S11305F08E31910539F481E090E09093630080930B
S113060062000895019690936300809362000895B8
S1130610833051F480916000909161000196909331
S113062061008093600008958430A1F480916A0091
S113063090916B008731910539F481E090E09093BB
S11306406B0080936A000895019690936B008093E9
S11306506A0008958530A1F480916400909165004A
S11306608130910539F48CE090E09093650080939B
S11306706400089501979093650080936400089541
S11306808630A1F4809162009091630081309105DD
S113069039F48EE190E090936300809362000895B2
S11306A0019790936300809362000895873051F41A
S11306B08091600090916100019790936100809314
S11306C0600008958830A1F480916A0090916B00D5
S11306D08130910539F487E190E090936B00809329
S11306E06A000895019790936B0080936A000895BF
S11306F0893091F480916800909169008B33910561
S113070029F410926900109268000895019690935C
S113071069008093680008958A3091F4809166009E
S1130720909167008B33910529F410926700109221
S1130730660008950196909367008093660008957B
S11307408D3099F48091680090916900009739F494
S11307508BE390E09093690080936800089501977B
S1130760909369008093680008958E3091F480918D
S1130770660090916700009739F48BE390E09093C2
S113078067008093660008950197909367008093B3
S113079066000895CF930E9484000E948400C82FAD
S11307A00E94B2010E94B40084EF91E00E944900CB
S11307B0C03121F08C2F0E94DC02EFCFCF9108953D
S11307C0662311F0C09A01C0C098C19882BB8FEF14
S11307D081BBC29A000000000000C2980895C0982E
S11307E0C19A11BA90B3C29A00000000000011BA75
S11307F090B3C29899239CF30E94E0030895B89A99
S1130800B99ABA9A80E190E00E94490060E080E3DE
S11308100E94E00385E090E00E94490060E080E3EC
S11308200E94E00381E090E00E94490060E08CE3D4
S11308300E94EF0360E08CE00E94EF0360E086E03A
S11308400E94EF0360E081E00E94EF03089560E0FE
S113085081E00E94EF030895CF93C62F98E2899F09
S1130860C00D112460E082E00E94EF03CC2331F03C
S113087060E084E10E94EF03C150D1F7CF91089565
S1130880CF93DF93EC012196FC018081882331F022
S113089061E00E94EF0389918111FACFDF91CF913A
S11308A008950E94FF030E94270460E080E00E94F4
S11308B02C048CEF90E00E9440040E9484000E946B
S11308C08400811103C00E948802F9CF8F30B9F7E8
S11308D00E94CA03F4CFAEE0B0E0E1E7F4E00C9488
S11308E01A070D891E8986E08C831A8309838FEF8A
S11308F09FE79E838D83AE01475E5F4F6F89788D3E
S1130900CE0101960E948E042F813885F801E20FF2
S1130910F31F10822E96E4E00C943607ACE0B0E0AE
S1130920E4E9F4E00C940C077C016B018A01FC01FE
S113093017821682838181FFBDC1CE0101964C01CD
S1130940F7019381F60193FD859193FF81916F01E6
S1130950882309F4ABC1853239F493FD859193FF63
S113096081916F01853229F4B70190E00E947606E7
S1130970E7CF512C312C20E02032A0F48B3269F0E7
S113098030F4803259F0833269F420612CC08D3206
S113099039F0803339F4216026C02260246023C0FA
S11309A0286021C027FD27C030ED380F3A3078F495
S11309B026FF06C0FAE05F9E300D1124532E13C0AB
S11309C08AE0389E300D1124332E20620CC08E3202
S11309D021F426FD6BC1206406C08C3611F4206816
S11309E002C0883641F4F60193FD859193FF81910D
S11309F06F018111C1CF982F9F7D9554933028F4B6
S1130A000C5F1F4FFFE3F9830DC0833631F083374A
S1130A1071F0833509F05BC022C0F80180818983BD
S1130A200E5F1F4F44244394512C540115C03801C8
S1130A30F2E06F0E711CF801A080B18026FF03C0A4
S1130A40652D70E002C06FEF7FEFC5012C870E9417
S1130A506B062C0183012C852F77222E17C03801B9
S1130A60F2E06F0E711CF801A080B18026FF03C074
S1130A70652D70E002C06FEF7FEFC5012C870E94E7
S1130A8060062C012C852068222E830123FC1BC0C8
S1130A90832D90E048165906B0F4B70180E290E047
S1130AA00E9476063A94F4CFF50127FC859127FE3F
S1130AB081915F01B70190E00E94760631103A946B
S1130AC0F1E04F1A51084114510471F7E5C084361E
S1130AD011F0893639F5F80127FF07C0608171816B
S1130AE0828193810C5F1F4F08C060817181072E42
S1130AF0000C880B990B0E5F1F4F2F76722E97FFF9
S1130B0009C090958095709561957F4F8F4F9F4F49
S1130B102068722E2AE030E0A4010E94AE06A82EBE
S1130B20A81844C0853729F42F7EB22E2AE030E07D
S1130B3025C0F22FF97FBF2E8F36C1F018F4883507
S1130B4079F0B4C0803719F0883721F0AFC02F2F67
S1130B502061B22EB4FE0DC08B2D8460B82E09C066
S1130B6024FF0AC09F2F9660B92E06C028E030E00B
S1130B7005C020E130E002C020E132E0F801B7FE18
S1130B8007C060817181828193810C5F1F4F06C011
S1130B906081718180E090E00E5F1F4FA4010E948C
S1130BA0AE06A82EA818FB2DFF777F2E76FE0BC06D
S1130BB0372D3E7FA51450F474FE0AC072FC08C0A1
S1130BC0372D3E7E05C0BA2C372D03C0BA2C01C088
S1130BD0B52C34FF0DC0FE01EA0DF11D8081803378
S1130BE011F4397E09C032FF06C0B394B39404C033
S1130BF0832F867809F0B39433FD13C030FF06C009
S1130C005A2CB31418F4530C5B18B32CB31468F4B3
S1130C10B70180E290E03C870E947606B3943C855D
S1130C20F5CFB31410F43B1801C0312C34FF12C0BB
S1130C30B70180E390E03C870E9476063C8532FF52
S1130C4017C031FD03C088E790E002C088E590E05A
S1130C50B7010CC0832F867859F031FF02C08BE2B4
S1130C6001C080E237FD8DE2B70190E00E94760674
S1130C70A51438F4B70180E390E00E9476065A94F4
S1130C80F7CFAA94F401EA0DF11D8081B70190E039
S1130C900E947606A110F5CF332009F451CEB70196
S1130CA080E290E00E9476063A94F6CFF7018681BE
S1130CB0978102C08FEF9FEF2C96E2E10C942807F6
S1130CC0FC010590615070400110D8F78095909513
S1130CD08E0F9F1F0895FC01615070400190011018
S1130CE0D8F7809590958E0F9F1F08950F931F93AB
S1130CF0CF93DF93FB01238121FD03C08FEF9FEF8F
S1130D0028C022FF16C046815781248135814217AD
S1130D10530744F4A081B1819D012F5F3F4F31837C
S1130D2020838C93268137812F5F3F4F378326831F
S1130D3010C0EB01092F182F0084F185E02D0995CF
S1130D40892BE1F68E819F8101969F838E83812F6B
S1130D50902FDF91CF911F910F910895FA01AA2747
S1130D60283051F1203181F1E8946F936E7F6E5FEA
S1130D707F4F8F4F9F4FAF4FB1E03ED0B4E03CD098
S1130D80670F781F891F9A1FA11D680F791F8A1F7B
S1130D90911DA11D6A0F711D811D911DA11D20D0E2
S1130DA009F468943F912AE0269F11243019305D9C
S1130DB03193DEF6CF010895462F4770405D41938D
S1130DC0B3E00FD0C9F7F6CF462F4F70405D4A33DA
S1130DD018F0495D31FD4052419302D0A9F7EACFA2
S1130DE0B4E0A6959795879577956795BA95C9F7D1
S1130DF000976105710508959B01AC010A2E0694C4
S1130E005795479537952795BA95C9F7620F731F7C
S1130E10841F951FA01D08952F923F924F925F92B9
S1130E206F927F928F929F92AF92BF92CF92DF92F6
S1130E30EF92FF920F931F93CF93DF93CDB7DEB75B
S1130E40CA1BDB0B0FB6F894DEBF0FBECDBF0994EF
S1130E502A88398848885F846E847D848C849B8446
S1130E60AA84B984C884DF80EE80FD800C811B8154
S1130E70AA81B981CE0FD11D0FB6F894DEBF0FBE83
S10D0E80CDBFED010895F894FFCFF3
S1130E8AE007140004002D003B0017002532643AE1
S1130E9A2532643A253264002532643A2532643AAA
S1130EAA302564002532643A3025643A25326400D8
S1130EBA2532643A3025643A302564003025643A90
S1130ECA2532643A253264003025643A2532643A7C
S1130EDA302564003025643A3025643A25326400AA
S1130EEA3025643A3025643A302564002532642F6B
S1130EFA2532642F253464002532642F3025642F6B
S1130F0A253464003025642F2532642F2534640087
S1130F1A3025642F3025642F253464006473616698
S1050F2A0000C1
S9030510E7
