:100000000C942A000C943F000C943F000C943F0089
:100010000C943F000C943F000C943F000C943F0064
:100020000C943F000C943F000C943F000C943F0054
:100030000C943F000C943F000C943F000C943F0044
:100040000C943F000C943F000C943F000C943F0034
:100050000C943F0011241FBECFE5D8E0DEBFCDBF1A
:1000600010E0A0E6B0E0EEE9F2E002C005900D92EB
:10007000A839B107D9F70E941D010C944D010C94C9
:1000800000009C0183E083BF83E808C082BF98B76B
:10009000916098BFA89508B600FEFDCF21503109A8
:1000A000A8F713BE0895E82F14BA15BA85B321E056
:1000B00030E0A9010E2E02C0440F551F0A94E2F74A
:1000C000482B45BB94B36C5F7F4F02C0220F331F98
:1000D0006A95E2F7922B94BB95B32095292325BB13
:1000E00093B3892F90E002C095958795EA95E2F742
:1000F00021E0822781700895CF92DF92EF92FF92E4
:100100000F931F93CF93DF9300E010E0C12CD12C0D
:1001100016C0FC2EBE01C8010E945300882331F096
:10012000F3948E2D880F880F8F0D0DC02196C4304B
:10013000D10579F70F5F1F4F0430110521F0E02E34
:10014000CC2DDD2DE6CFDF91CF911F910F91FF9048
:10015000EF90DF90CF900895662311F0C09A01C010
:10016000C098C19882BB8FEF81BBC29A000000008B
:100170000000C2980895C098C19A11BA90B3C29A6B
:1001800000000000000011BA90B3C29899239CF3BC
:100190000E94AC000895B89AB99ABA9A80E190E0AA
:1001A0000E94410060E080E30E94AC0085E090E0A6
:1001B0000E94410060E080E30E94AC0081E090E09A
:1001C0000E94410060E08CE30E94BB0060E08CE094
:1001D0000E94BB0060E086E00E94BB0060E081E01E
:1001E0000E94BB00089560E081E00E94BB0008957A
:1001F000CF93C62F98E2899FC00D112460E082E062
:100200000E94BB00CC2331F060E084E10E94BB007F
:10021000C150D1F7CF910895CF93DF93EC01219690
:10022000FC018081882331F061E00E94BB0089914C
:100230008111FACFDF91CF9108950E94CB00399AB6
:100240003E9A83E487B980EC86B960E080E00E9442
:10025000F80080E690E00E940C0160E081E00E94DE
:10026000F80081E790E00E940C010E947C00813040
:1002700059F40E94F3008BE790E00E940C0184EF98
:1002800091E00E944100FBCF823079F70E94F30099
:0E02900089E890E00E940C01E8CFF894FFCFBF
:10029E00313A426567696E2053616D706C696E67A5
:1002AE0000323A52657374617274006B6579203155
:1002BE002070726573736564006B657920322070EF
:0802CE007265737365640000A2
:00000001FF
