:100000000C942A000C9447000C9447000C94470071
:100010000C9447000C9447000C9447000C94470044
:100020000C9447000C9447000C9447000C94470034
:100030000C9447000C9447000C9447000C94470024
:100040000C9447000C9447000C9447000C94470014
:100050000C94470011241FBECFE5D8E0DEBFCDBF12
:1000600010E0A0E6B0E0EAE1FDE002C005900D92EC
:10007000AA39B107D9F720E0AAE9B0E001C01D9282
:10008000AC3BB207E1F70E943E010C948B060C9446
:1000900000009C0183E083BF83E808C082BF98B75B
:1000A000916098BFA89508B600FEFDCF2150310998
:1000B000A8F713BE0895E82F14BA15BA85B321E046
:1000C00030E0A9010E2E02C0440F551F0A94E2F73A
:1000D000482B45BB94B36C5F7F4F02C0220F331F88
:1000E0006A95E2F7922B94BB95B32095292325BB03
:1000F00093B3892F90E002C095958795EA95E2F732
:1001000021E0822781700895CF92DF92EF92FF92D3
:100110000F931F93CF93DF9300E010E0C12CD12CFD
:1001200016C0FC2EBE01C8010E945B00882331F07E
:10013000F3948E2D880F880F8F0D0DC02196C4303B
:10014000D10579F70F5F1F4F0430110521F0E02E24
:10015000CC2DDD2DE6CFDF91CF911F910F91FF9038
:10016000EF90DF90CF900895662311F0C09A01C000
:10017000C098C19882BB8FEF81BBC29A000000007B
:100180000000C2980895C098C19A11BA90B3C29A5B
:1001900000000000000011BA90B3C29899239CF3AC
:1001A0000E94B4000895B89AB99ABA9A80E190E092
:1001B0000E94490060E080E30E94B40085E090E086
:1001C0000E94490060E080E30E94B40081E090E07A
:1001D0000E94490060E08CE30E94C30060E08CE074
:1001E0000E94C30060E086E00E94C30060E081E0FE
:1001F0000E94C300089560E081E00E94C30008955A
:10020000CF93C62F98E2899FC00D112460E082E051
:100210000E94C300CC2331F060E084E10E94C3005F
:10022000C150D1F7CF910895CF93DF93EC01219680
:10023000FC018081882331F061E00E94C300899134
:100240008111FACFDF91CF9108950F931F93CF9330
:10025000DF938C01EB0160E080E00E940001C801A7
:100260000E94140160E081E00E940001CE010E9422
:100270001401DF91CF911F910F910895CF93DF93D8
:10028000CDB7DEB72C970FB6F894DEBF0FBECDBF4B
:100290000E94D3000E949D010F2EF6E9CF2EF0E0C0
:1002A000DF2EF02D0F2EFAE9EF2EF0E0FF2EF02DCD
:1002B000AE2CBF2C0E948400182F60E670E08AE606
:1002C00090E00E9425011130A9F70E94FB008BE706
:1002D00090E00E9414010E948400823039F40E9450
:1002E000FB0089E890E00E941401E4CF84EF91E0E4
:1002F0000E9449000E94FB000FEF1FE720E030E062
:1003000040E050E060E070E0CE0101960E94A20162
:100310002A812F9329812F93DF92CF92FF92EF9220
:100320000E94B3038A2D9B2D0E9414010F900F9001
:100330000F900F900F900F90CECF80E487B980EC94
:1003400086B908954F925F926F927F92AF92BF925B
:10035000CF92DF92EF92FF920F931F93CF93DF9391
:10036000EC015B017A01690180EC86B964B175B179
:1003700080E090E00E94A40224E13EEA43E251E4DE
:100380000E94030220E030E040EA50E40E94320381
:100390000E9475022B013C01AE9C9001AF9C300D78
:1003A000BE9C300D1124260F371F8FEFE81AF80A74
:1003B00059824882C901B7010E949F037B836A83E7
:1003C0003D832C83FF82EE82942D852D4C145D0499
:1003D00010F49C2D8D2D988789870415150508F438
:1003E00028015B864A86CE01DF91CF911F910F9144
:1003F000FF90EF90DF90CF90BF90AF907F906F9085
:100400005F904F9008950E9417020C94F8020E948A
:10041000F10258F00E94EA0240F029F45F3F29F00F
:100420000C94E10251110C942C030C94E7020E94ED
:10043000090368F39923B1F3552391F3951B550BE9
:10044000BB27AA2762177307840738F09F5F5F4FA7
:10045000220F331F441FAA1FA9F335D00E2E3AF0E6
:10046000E0E832D091505040E695001CCAF72BD0FE
:10047000FE2F29D0660F771F881FBB1F261737074F
:100480004807AB07B0E809F0BB0B802DBF01FF2781
:1004900093585F4F3AF09E3F510578F00C94E1027B
:1004A0000C942C035F3FE4F3983ED4F38695779544
:1004B0006795B795F7959F5FC9F7880F911D96953A
:1004C000879597F90895E1E0660F771F881FBB1F96
:1004D000621773078407BA0720F0621B730B840B43
:1004E000BA0BEE1F88F7E09508950E94110388F07B
:1004F0009F5798F0B92F9927B751B0F0E1F0660FE8
:10050000771F881F991F1AF0BA95C9F714C0B13028
:1005100091F00E942B03B1E008950C942B03672FF8
:10052000782F8827B85F39F0B93FCCF38695779557
:100530006795B395D9F73EF4909580957095619540
:100540007F4F8F4F9F4F0895E89409C097FB3EF46B
:1005500090958095709561957F4F8F4F9F4F992310
:10056000A9F0F92F96E9BB279395F695879577958E
:100570006795B795F111F8CFFAF4BB0F11F460FF4E
:100580001BC06F5F7F4F8F4F9F4F16C0882311F0A6
:1005900096E911C0772321F09EE8872F762F05C0BA
:1005A000662371F096E8862F70E060E02AF09A9555
:1005B000660F771F881FDAF7880F9695879597F94A
:1005C000089597F99F6780E870E060E008959FEFD5
:1005D00080EC089500240A941616170618060906DA
:1005E000089500240A9412161306140605060895A9
:1005F000092E0394000C11F4882352F0BB0F40F431
:10060000BF2B11F460FF04C06F5F7F4F8F4F9F4F70
:10061000089557FD9058440F551F59F05F3F71F0F2
:100620004795880F97FB991F61F09F3F79F0879559
:100630000895121613061406551FF2CF4695F1DFE2
:1006400008C0161617061806991FF1CF8695710572
:10065000610508940895E894BB2766277727CB01A6
:1006600097F908950E9445030C94F8020E94EA024B
:1006700038F00E94F10220F0952311F00C94E10271
:100680000C94E70211240C942C030E94090370F3CC
:10069000959FC1F3950F50E0551F629FF001729F27
:1006A000BB27F00DB11D639FAA27F00DB11DAA1F36
:1006B000649F6627B00DA11D661F829F2227B00D83
:1006C000A11D621F739FB00DA11D621F839FA00D0E
:1006D000611D221F749F3327A00D611D231F849F5E
:1006E000600D211D822F762F6A2F11249F575040B5
:1006F0009AF0F1F088234AF0EE0FFF1FBB1F661F30
:10070000771F881F91505040A9F79E3F510580F0F8
:100710000C94E1020C942C035F3FE4F3983ED4F375
:10072000869577956795B795F795E7959F5FC1F79C
:10073000FE2B880F911D9695879597F90895AA1B12
:10074000BB1B51E107C0AA1FBB1FA617B70710F0BC
:10075000A61BB70B881F991F5A95A9F780959095EE
:10076000BC01CD010895AEE0B0E0E9EBF3E00C94FC
:1007700062060D891E8986E08C831A8309838FEFB8
:100780009FE79E838D83AE01475E5F4F6F89788DB3
:10079000CE0101960E94D6032F813885F801E20F21
:1007A000F31F10822E96E4E00C947E06ACE0B0E0DD
:1007B000ECEDF3E00C9454067C016B018A01FC0122
:1007C00017821682838181FFBDC1CE0101964C0143
:1007D000F7019381F60193FD859193FF81916F015C
:1007E000882309F4ABC1853239F493FD859193FFD9
:1007F00081916F01853229F4B70190E00E94BE0516
:10080000E7CF512C312C20E02032A0F48B3269F05C
:1008100030F4803259F0833269F420612CC08D327B
:1008200039F0803339F4216026C02260246023C06F
:10083000286021C027FD27C030ED380F3A3078F40A
:1008400026FF06C0FAE05F9E300D1124532E13C020
:100850008AE0389E300D1124332E20620CC08E3277
:1008600021F426FD6BC1206406C08C3611F420688B
:1008700002C0883641F4F60193FD859193FF819182
:100880006F018111C1CF982F9F7D9554933028F42B
:100890000C5F1F4FFFE3F9830DC0833631F08337C0
:1008A00071F0833509F05BC022C0F8018081898333
:1008B0000E5F1F4F44244394512C540115C038013E
:1008C000F2E06F0E711CF801A080B18026FF03C01A
:1008D000652D70E002C06FEF7FEFC5012C870E948D
:1008E000B3052C0183012C852F77222E17C03801E8
:1008F000F2E06F0E711CF801A080B18026FF03C0EA
:10090000652D70E002C06FEF7FEFC5012C870E945C
:10091000A8052C012C852068222E830123FC1BC0F6
:10092000832D90E048165906B0F4B70180E290E0BC
:100930000E94BE053A94F4CFF50127FC859127FE6D
:1009400081915F01B70190E00E94BE0531103A9499
:10095000F1E04F1A51084114510471F7E5C0843693
:1009600011F0893639F5F80127FF07C060817181E0
:10097000828193810C5F1F4F08C060817181072EB7
:10098000000C880B990B0E5F1F4F2F76722E97FF6E
:1009900009C090958095709561957F4F8F4F9F4FBF
:1009A0002068722E2AE030E0A4010E94F605A82EED
:1009B000A81844C0853729F42F7EB22E2AE030E0F3
:1009C00025C0F22FF97FBF2E8F36C1F018F488357D
:1009D00079F0B4C0803719F0883721F0AFC02F2FDD
:1009E0002061B22EB4FE0DC08B2D8460B82E09C0DC
:1009F00024FF0AC09F2F9660B92E06C028E030E081
:100A000005C020E130E002C020E132E0F801B7FE8D
:100A100007C060817181828193810C5F1F4F06C086
:100A20006081718180E090E00E5F1F4FA4010E9401
:100A3000F605A82EA818FB2DFF777F2E76FE0BC09B
:100A4000372D3E7FA51450F474FE0AC072FC08C016
:100A5000372D3E7E05C0BA2C372D03C0BA2C01C0FD
:100A6000B52C34FF0DC0FE01EA0DF11D80818033ED
:100A700011F4397E09C032FF06C0B394B39404C0A8
:100A8000832F867809F0B39433FD13C030FF06C07E
:100A90005A2CB31418F4530C5B18B32CB31468F429
:100AA000B70180E290E03C870E94BE05B3943C858C
:100AB000F5CFB31410F43B1801C0312C34FF12C031
:100AC000B70180E390E03C870E94BE053C8532FF81
:100AD00017C031FD03C088E790E002C088E590E0D0
:100AE000B7010CC0832F867859F031FF02C08BE22A
:100AF00001C080E237FD8DE2B70190E00E94BE05A3
:100B0000A51438F4B70180E390E00E94BE055A9422
:100B1000F7CFAA94F401EA0DF11D8081B70190E0AE
:100B20000E94BE05A110F5CF332009F451CEB701C4
:100B300080E290E00E94BE053A94F6CFF7018681EC
:100B4000978102C08FEF9FEF2C96E2E10C94700624
:100B5000FC010590615070400110D8F78095909588
:100B60008E0F9F1F0895FC0161507040019001108D
:100B7000D8F7809590958E0F9F1F08950F931F9320
:100B8000CF93DF93FB01238121FD03C08FEF9FEF04
:100B900028C022FF16C04681578124813581421723
:100BA000530744F4A081B1819D012F5F3F4F3183F2
:100BB00020838C93268137812F5F3F4F3783268395
:100BC00010C0EB01092F182F0084F185E02D099545
:100BD000892BE1F68E819F8101969F838E83812FE1
:100BE000902FDF91CF911F910F910895FA01AA27BD
:100BF000283051F1203181F1E8946F936E7F6E5F60
:100C00007F4F8F4F9F4FAF4FB1E03ED0B4E03CD00D
:100C1000670F781F891F9A1FA11D680F791F8A1FF0
:100C2000911DA11D6A0F711D811D911DA11D20D057
:100C300009F468943F912AE0269F11243019305D11
:100C40003193DEF6CF010895462F4770405D419302
:100C5000B3E00FD0C9F7F6CF462F4F70405D4A334F
:100C600018F0495D31FD4052419302D0A9F7EACF17
:100C7000B4E0A6959795879577956795BA95C9F746
:100C800000976105710508959B01AC010A2E069439
:100C90005795479537952795BA95C9F7620F731FF2
:100CA000841F951FA01D08952F923F924F925F922F
:100CB0006F927F928F929F92AF92BF92CF92DF926C
:100CC000EF92FF920F931F93CF93DF93CDB7DEB7D1
:100CD000CA1BDB0B0FB6F894DEBF0FBECDBF099465
:100CE0002A88398848885F846E847D848C849B84BC
:100CF000AA84B984C884DF80EE80FD800C811B81CA
:100D0000AA81B981CE0FD11D0FB6F894DEBF0FBEF8
:0A0D1000CDBFED010895F894FFCF68
:100D1A00323A5265737461727400313A4265676996
:100D2A006E2053616D706C696E67006B6579203156
:100D3A002070726573736564006B65793220707216
:0A0D4A006573736564002564000002
:00000001FF
