:100000000C942A000C943F000C943F000C943F0089
:100010000C943F000C943F000C943F000C943F0064
:100020000C943F000C943F000C943F000C943F0054
:100030000C943F000C943F000C943F000C943F0044
:100040000C943F000C943F000C943F000C943F0034
:100050000C943F0011241FBECFE5D8E0DEBFCDBF1A
:1000600010E0A0E6B0E0E0E0F4E002C005900D9200
:10007000AE3BB107D9F70E94DE010C94FE010C944F
:1000800000009C0182E083BF86EF08C082BF98B762
:10009000916098BFA89508B600FEFDCF21503109A8
:1000A000A8F713BE0895E82F14BA15BA85B321E056
:1000B00030E0A9010E2E02C0440F551F0A94E2F74A
:1000C000482B45BB94B36C5F7F4F02C0220F331F98
:1000D0006A95E2F7922B94BB95B32095292325BB13
:1000E00093B3892F90E002C095958795EA95E2F742
:1000F00021E0822781700895CF92DF92EF92FF92E4
:100100000F931F93CF93DF9300E010E0C12CD12C0D
:1001100016C0FC2EBE01C8010E945300882331F096
:10012000F3948E2D880F880F8F0D0DC02196C4304B
:10013000D10579F70F5F1F4F0430110521F0E02E34
:10014000CC2DDD2DE6CFDF91CF911F910F91FF9048
:10015000EF90DF90CF900895EF92FF920F931F934F
:10016000CF93DF931616170684F47B018C01C0E051
:10017000D0E0C39AC8010E944100C398C8010E9400
:1001800041002196CE15DF05A1F7DF91CF911F9198
:100190000F91FF90EF900895CF92DF92EF92FF9230
:1001A0000F931F93CF93DF931616170614F56B0169
:1001B000C82FD92F00E010E010C01016110664F40B
:1001C000F70124813581808191812817390721F435
:1001D00085E090E00E94410024967E016A817B8147
:1001E000888199810E94AC000F5F1F4F0C151D057F
:1001F00021F7DF91CF911F910F91FF90EF90DF904A
:10020000CF900895CF93DF93CDB7DEB7C454D10913
:100210000FB6F894DEBF0FBECDBF84E4E0E6F0E099
:10022000DE01119601900D928A95E1F761E170E08F
:10023000CE0101960E94CC00CC5BDF4F0FB6F89444
:10024000DEBF0FBECDBFDF91CF910895CF93DF9377
:10025000CDB7DEB7A0970FB6F894DEBF0FBECDBF07
:10026000CE01019620E2FC0111922A95E9F74FE7B1
:1002700050E05A83498320E133E03C832B836FE3D2
:1002800070E07E836D832EEB30E03A87298721E092
:1002900030E03C872B877E876D87388B2F8761E71F
:1002A00070E07A8B698B63E070E07C8B6B8B5E8B8C
:1002B0004D8B788F6F8B6AEA70E07A8F698F3C8FF5
:1002C0002B8F5E8F4D8F38A32F8F68E070E00E94D8
:1002D000CC00A0960FB6F894DEBF0FBECDBFDF9165
:1002E000CF910895662311F0C09A01C0C098C198BB
:1002F00082BB8FEF81BBC29A000000000000C29851
:100300000895C098C19A11BA90B3C29A0000000033
:10031000000011BA90B3C29899239CF30E94720115
:100320000895B89AB99ABA9A80E190E00E94410083
:1003300060E080E30E94720185E090E00E9441004D
:1003400060E080E30E94720181E090E00E94410041
:1003500060E08CE30E94810160E08CE00E948101FA
:1003600060E086E00E94810160E081E00E948101FE
:100370000895CF93C62F98E2899FC00D112460E0A5
:1003800082E00E948101CC2331F060E084E10E9490
:100390008101C150D1F7CF910895CF93DF93EC0144
:1003A0002196FC018081882331F061E00E94810167
:1003B00089918111FACFDF91CF91089588E087BBB1
:1003C0000E94910160E080E00E94B90184EA90E01F
:1003D0000E94CD0160E081E00E94B90185EB90E0D0
:1003E0000E94CD010E947C00813019F40E9402011C
:1003F000F9CF8230B9F70E942601F4CFF894FFCFED
:100400006500ED017100B8017F0010036500ED018A
:100410007100B8017F0010037F00C4007F00C4009A
:100420007F00C4007F00C4007100DC007100DC00AC
:100430007100DC007100DC006500ED017100B801A5
:100440007F001003313A486F742043726F7373203A
:0E04500042756E7300323A414243277300003A
:00000001FF
