S01D000050726F6A656374335F4D757369632D506C617965722E7372656303
S11300000C942A000C943F000C943F000C943F0085
S11300100C943F000C943F000C943F000C943F0060
S11300200C943F000C943F000C943F000C943F0050
S11300300C943F000C943F000C943F000C943F0040
S11300400C943F000C943F000C943F000C943F0030
S11300500C943F0011241FBECFE5D8E0DEBFCDBF16
S113006010E0A0E6B0E0E2E3F2E002C005900D92F9
S1130070AA37B107D9F70E94EB000C9417010C942E
S113008000009C0182E083BF86EF08C082BF98B75E
S1130090916098BFA89508B600FEFDCF21503109A4
S11300A0A8F713BE0895662311F0C09A01C0C09842
S11300B0C19882BB8FEF81BBC29A00000000000090
S11300C0C2980895C098C19A11BA90B3C29A000018
S11300D00000000011BA90B3C29899239CF30E94C7
S11300E053000895B89AB99ABA9A80E190E00E94B0
S11300F0410060E080E30E94530085E090E00E94AC
S1130100410060E080E30E94530081E090E00E949F
S1130110410060E08CE30E94620060E08CE00E9499
S1130120620060E086E00E94620060E081E00E947C
S113013062000895CF93DF93EC012196FC01808146
S1130140882331F061E00E94620089918111FACF25
S1130150DF91CF910895EF92FF920F931F93CF9366
S1130160DF936695E62EF12CEE0CFF1C1E141F0483
S113017084F4C0E0D0E0082F10E0C39AC8010E94C4
S11301804100C398C8010E9441002196CE15DF05A5
S1130190A1F7DF91CF911F910F91FF90EF900895F8
S11301A00F931F93CF93DF93161617067CF48C01DD
S11301B0EC01660F771F060F171FE991F991618112
S11301C080810E94AB00C017D107B9F7DF91CF91AE
S11301D01F910F910895CF93DF93CDB7DEB760974A
S11301E00FB6F894DEBF0FBECDBF88E087BB0E9478
S11301F0720080E790E00E949A0080E1E0E6F0E07F
S1130200DE01119601900D928A95E1F768E070E0A5
S1130210CE0101960E94D00080E090E060960FB677
S1130220F894DEBF0FBECDBFDF91CF910895F8944F
S1050230FFCFFA
S11302327F013F01BE013F0171037F03AA017F01D8
S10D024250524F4A45435420330044
S9030000FC
