S01D000050726F6A656374335F4D757369632D506C617965722E7372656303
S11300000C942A000C943F000C943F000C943F0085
S11300100C943F000C943F000C943F000C943F0060
S11300200C943F000C943F000C943F000C943F0050
S11300300C943F000C943F000C943F000C943F0040
S11300400C943F000C943F000C943F000C943F0030
S11300500C943F0011241FBECFE5D8E0DEBFCDBF16
S113006010E0A0E6B0E0E4E3F2E002C005900D92F7
S1130070A238B107D9F70E94EC000C9418010C9433
S113008000009C0182E083BF86EF08C082BF98B75E
S1130090916098BFA89508B600FEFDCF21503109A4
S11300A0A8F713BE0895662311F0C09A01C0C09842
S11300B0C19882BB8FEF81BBC29A00000000000090
S11300C0C2980895C098C19A11BA90B3C29A000018
S11300D00000000011BA90B3C29899239CF30E94C7
S11300E053000895B89AB99ABA9A80E190E00E94B0
S11300F0410060E080E30E94530085E090E00E94AC
S1130100410060E080E30E94530081E090E00E949F
S1130110410060E08CE30E94620060E08CE00E9499
S1130120620060E086E00E94620060E081E00E947C
S113013062000895CF93DF93EC012196FC01808146
S1130140882331F061E00E94620089918111FACF25
S1130150DF91CF910895EF92FF920F931F93CF9366
S1130160DF931616170684F47B018C01C0E0D0E0FF
S1130170C39AC8010E944100C398C8010E9441006B
S11301802196CE15DF05A1F7DF91CF911F910F9135
S1130190FF90EF900895EF92FF920F931F93CF93E8
S11301A0DF93161617068CF47B01C82FD92F00E0B5
S11301B010E06A817B81888199810E94AB000F5F86
S11301C01F4F24960E151F05A1F7DF91CF911F91A4
S11301D00F91FF90EF900895CF93DF93CDB7DEB7E3
S11301E068970FB6F894DEBF0FBECDBF88E087BB1B
S11301F00E94720088E790E00E949A0088E1E0E69D
S1130200F0E0DE01119601900D928A95E1F766E027
S113021070E0CE0101960E94CB0080E090E06896E9
S11302200FB6F894DEBF0FBECDBFDF91CF91089516
S1070230F894FFCF6C
S11302346500ED017100B8017F0010036500ED0154
S11302447100B8017F00100350524F4A45435420B3
S1050254330071
S9030000FC
