S01D000050726F6A656374335F4D757369632D506C617965722E7372656303
S11300000C942A000C943F000C943F000C943F0085
S11300100C943F000C943F000C943F000C943F0060
S11300200C943F000C943F000C943F000C943F0050
S11300300C943F000C943F000C943F000C943F0040
S11300400C943F000C943F000C943F000C943F0030
S11300500C943F0011241FBECFE5D8E0DEBFCDBF16
S113006010E0A0E6B0E0E4E4F2E002C005900D92F6
S1130070AA36B107D9F70E9404010C9420010C940C
S113008000009C0183E083BF8FEF08C082BF98B754
S1130090916098BFA89508B600FEFDCF21503109A4
S11300A0A8F713BE0895662311F0C09A01C0C09842
S11300B0C19882BB8FEF81BBC29A00000000000090
S11300C0C2980895C098C19A11BA90B3C29A000018
S11300D00000000011BA90B3C29899239CF30E94C7
S11300E053000895B89AB99ABA9A80E190E00E94B0
S11300F0410060E080E30E94530085E090E00E94AC
S1130100410060E080E30E94530081E090E00E949F
S1130110410060E08CE30E94620060E08CE00E9499
S1130120620060E086E00E94620060E081E00E947C
S113013062000895CF93DF93EC012196FC01808146
S1130140882331F061E00E94620089918111FACF25
S1130150DF91CF910895E82F14BA15BA85B321E041
S113016030E0A9010E2E02C0440F551F0A94E2F795
S1130170482B45BB94B36C5F7F4F02C0220F331FE3
S11301806A95E2F7922B94BB95B32095292325BB5E
S113019093B3892F90E002C095958795EA95E2F78D
S11301A021E0822781700895CF92DF92EF92FF922F
S11301B00F931F93CF93DF9300E010E0C12CD12C59
S11301C016C0FC2EBE01C8010E94AB00882331F08A
S11301D0F3948E2D880F880F8F0D0DC02196C43097
S11301E0D10579F70F5F1F4F0430110521F0E02E80
S11301F0CC2DDD2DE6CFDF91CF911F910F91FF9094
S1130200EF90DF90CF900895CF9388E087BB0E9452
S1130210720080E690E00E949A000E94D400C82FE9
S1130220C39A80E090E00E944100C39880E090E08F
S11302300E944100CD3089F780E090E0CF9108958D
S1070240F894FFCF5C
S10D024450524F4A45435420330042
S9030000FC
