:100000000C942A000C943F000C943F000C943F0089
:100010000C943F000C943F000C943F000C943F0064
:100020000C943F000C943F000C943F000C943F0054
:100030000C943F000C943F000C943F000C943F0044
:100040000C943F000C943F000C943F000C943F0034
:100050000C943F0011241FBECFE5D8E0DEBFCDBF1A
:1000600010E0A0E6B0E0ECE6FEE002C005900D92E4
:10007000AA37B107D9F70E94AA040C9434070C944C
:1000800000009C0182E083BF86EF08C082BF98B762
:10009000916098BFA89508B600FEFDCF21503109A8
:1000A000A8F713BE0895E82F14BA15BA85B321E056
:1000B00030E0A9010E2E02C0440F551F0A94E2F74A
:1000C000482B45BB94B36C5F7F4F02C0220F331F98
:1000D0006A95E2F7922B94BB95B32095292325BB13
:1000E00093B3892F90E002C095958795EA95E2F742
:1000F00021E0822781700895CF92DF92EF92FF92E4
:100100000F931F93CF93DF9300E010E0C12CD12C0D
:1001100016C0FC2EBE01C8010E945300882331F096
:10012000F3948E2D880F880F8F0D0DC02196C4304B
:10013000D10579F70F5F1F4F0430110521F0E02E34
:10014000CC2DDD2DE6CFDF91CF911F910F91FF9048
:10015000EF90DF90CF9008954F925F926F927F92D1
:10016000AF92BF92CF92DF92EF92FF920F931F93C5
:10017000CF93DF93161617069CF569017A018B0160
:10018000BC01072E000C880B990B0E9413062B0153
:100190003C01A701960160E070E080E89FE30E94C7
:1001A00003059B01AC01C301B2010E949F060E949E
:1001B000E2055B01C0E0D0E0C39AC5010E944100A6
:1001C000C398A7019601C301B2010E949F060E9435
:1001D000E205CB010E9441002196C017D10761F7CB
:1001E000DF91CF911F910F91FF90EF90DF90CF9013
:1001F000BF90AF907F906F905F904F9008958F92D7
:100200009F92AF92BF92CF92DF92EF92FF920F93A5
:100210001F93CF93DF931616170644F549015A0131
:100220006B01C82FD92F00E010E010C01016110686
:1002300064F4F70124813581808191812817390781
:1002400021F485E090E00E94410024967E016A81BD
:100250007B8188819981A5019401880F991F0E9453
:10026000AC000F5F1F4F0C151D0501F7DF91CF91FB
:100270001F910F91FF90EF90DF90CF90BF90AF90C4
:100280009F908F9008952F923F924F925F926F921E
:100290007F928F929F92AF92BF92CF92DF92EF9216
:1002A000FF920F931F93CF93DF93CDB7DEB7C45464
:1002B000D1090FB6F894DEBF0FBECDBF7C014A0155
:1002C0005B010F2EF5E62F2E312CF02D3A8229827C
:1002D000BC01990F880B990B0E9413069B01AC017E
:1002E00064EA70EF86EF93E40E9470050E94E205D5
:1002F0002B013C017C836B8301E710E01E830D839F
:1003000088EB91E0B7010E940C076B0178876F833F
:10031000EFE7F0E0FA87E98780E193E0B7010E9418
:100320000C079B017C876B873E862D86588A4F86FB
:100330001A8B098BDC8ACB8AFE8BED8B788F6F8BC7
:10034000FA8FE98F84EC90E0B7010E940C077C8F54
:100350006B8FFE8FED8F78A36F8FFAA3E9A37CA339
:100360006BA3FEA3EDA378A76FA31AA709A78CED33
:1003700090E0B7010E940C077CA76BA71EA70DA7F2
:1003800078AB6FA71AAB09AB7CAB6BAB1EAB0DABFD
:1003900078AF6FAB3AAE29AE5CAE4BAE1EAF0DAFD1
:1003A0002196DFAECEAE21972396FFAFEEAF239717
:1003B00025963FAF2EAF2597A501940161E170E02E
:1003C000CE0101960E94FF00CC5BDF4F0FB6F89480
:1003D000DEBF0FBECDBFDF91CF911F910F91FF9078
:1003E000EF90DF90CF90BF90AF909F908F907F90D5
:1003F0006F905F904F903F902F9008952F923F9273
:100400004F925F926F927F928F929F92AF92BF9224
:10041000CF92DF92EF92FF920F931F93CF93DF93D0
:10042000CDB7DEB7C85AD1090FB6F894DEBF0FBEFC
:10043000CDBF5C01CB55DF4F488359836A837B83F3
:10044000C55AD0400F2EFFEBEF2EF12CF02DFA8283
:10045000E982BC01990F880B990B0E941306C357C0
:10046000DF4F688379838A839B83CD58D0409B017B
:10047000AC0164EA70ED82E893E40E9470050E948A
:10048000E205CB56DF4F688379838A839B83C55906
:10049000D040CB56DF4F88819981C559D0409C838D
:1004A0008B83FE82ED8298878F830FE710E01A8797
:1004B000098788E891E0B5010E940C071B017C8741
:1004C0006B871E870D87788B6F8781E790E09A8B0B
:1004D000898B88EB91E0B5010E940C07C756DF4F6E
:1004E00079836883C959D0407C8B6B8B81E790E01E
:1004F0009E8B8D8B788F6F8B1A8F098F80E193E0A5
:10050000B5010E940C07C156DF4F79836883CF592C
:10051000D0407C8F6B8F0F2EFFE88F2E912CF02D0B
:100520009E8E8D8EC357DF4F288139814A815B8132
:10053000CD58D04061E77DE98EEA93E40E947005D2
:100540000E94E205CF56DF4F688379838A839B83BD
:10055000C159D040CF56DF4F88819981C159D040D1
:1005600098A38F8F9AA289A29CA38BA30F2EF7E941
:10057000AF2EB12CF02DBEA2ADA2C357DF4F288104
:1005800039814A815B81CD58D04064EA70ED84EABC
:1005900093E40E9470050E94E2052B013C0178A7BC
:1005A0006FA3BAA6A9A67CA76BA70F2EFAEACF2E37
:1005B000D12CF02DDEA6CDA6C357DF4F288139817F
:1005C0004A815B81CD58D0406BE774ED82E993E4BA
:1005D0000E9470050E94E205C556DF4F688379834B
:1005E0008A839B83CB59D040C556DF4F8881998140
:1005F000CB59D04098AB8FA7DAAAC9AA9CAB8BABDA
:10060000FEAAEDAAC357DF4F288139814A815B8159
:10061000CD58D04064EA70ED82E094E40E94700509
:100620000E94E205CF55DF4F688379838A839B83DD
:10063000C15AD040CF55DF4F88819981C15AD040EF
:1006400098AF8FAB1AAF09AF3CAE2BAE1EAF0DAF5C
:1006500021963FAE2EAE219723969FAE8EAE239766
:10066000CF56DF4F88819981C159D04025969FAFE1
:100670008EAF259727969FAE8EAE279729969FAF70
:100680008EAF29972B96BFAEAEAE2B972D965FAE51
:100690004EAE2D972F96BFAEAEAE2F9761965FAE42
:1006A0004EAE61976396DFAECEAE6397C357DF4F12
:1006B000288139814A815B81CD58D0406BE774ED48
:1006C00082E194E40E9470050E94E20565967FAF86
:1006D0006EAF65976796FFAEEEAE6797CB56DF4F6E
:1006E00088819981C559D04069969FAF8EAF69972F
:1006F0006B96FFAEEEAE6B976D969FAF8EAF6D971C
:100700006F961FAF0EAF6F97A1963FAE2EAEA1971B
:10071000A3961FAF0EAFA397A5963FAE2EAEA5979B
:1007200081E790E0A7969FAF8EAFA797C756DF4FA0
:1007300088819981C959D040A9969FAF8EAFA9975A
:1007400081E790E0AB969FAF8EAFAB97C756DF4F78
:1007500088819981C959D040AD969FAF8EAFAD9732
:10076000AF961FAF0EAFAF97C156DF4F888199810B
:10077000CF59D040E1969FAF8EAFE197E3969FAE01
:100780008EAEE397CF56DF4F88819981C159D04013
:10079000E5969FAF8EAFE597E7969FAE8EAEE79753
:1007A000E9969FAF8EAFE997EB96BFAEAEAEEB97F3
:1007B000ED965FAE4EAEED97EF96BFAEAEAEEF9755
:1007C000C158DF4F59824882CF57D040CF57DF4FB3
:1007D000D982C882C158D040C556DF4F88819981DF
:1007E000CB59D040CD57DF4F99838883C358D04031
:1007F000CB57DF4FD982C882C558D040C957DF4F89
:1008000099838883C758D040C757DF4FF982E88261
:10081000C958D040CF55DF4F88819981C15AD04007
:10082000C557DF4F99838883CB58D040CB55DF4FD6
:10083000288139814A815B81C55AD04063E270E0EA
:10084000CE0101960E94FF00C855DF4F0FB6F89405
:10085000DEBF0FBECDBFDF91CF911F910F91FF90F3
:10086000EF90DF90CF90BF90AF909F908F907F9050
:100870006F905F904F903F902F900895662311F0F6
:10088000C09A01C0C098C19882BB8FEF81BBC29A49
:10089000000000000000C2980895C098C19A11BAE3
:1008A00090B3C29A00000000000011BA90B3C29841
:1008B00099239CF30E943E040895B89AB99ABA9A73
:1008C00080E190E00E94410060E080E30E943E04ED
:1008D00085E090E00E94410060E080E30E943E04D9
:1008E00081E090E00E94410060E08CE30E944D04B2
:1008F00060E08CE00E944D0460E086E00E944D04C0
:1009000060E081E00E944D040895CF93C62F98E2E5
:10091000899FC00D112460E082E00E944D04CC2329
:1009200031F060E084E10E944D04C150D1F7CF91D5
:100930000895CF93DF93EC012196FC0180818823F9
:1009400031F061E00E944D0489918111FACFDF916D
:10095000CF91089588E087BB0E945D0460E080E04D
:100960000E94850480E690E00E94990460E081E0A6
:100970000E94850481E790E00E9499040E947C0017
:10098000C82F813049F440E050E060E07FE381E02F
:1009900090E00E94430116C0823049F440E050E0EC
:1009A00060E07FE381E090E00E94FE0116C08530A8
:1009B00049F444EA50E76DE77FE381E090E00E946C
:1009C000430116C0C63049F444EA50E76DE77FE3BF
:1009D00081E090E00E94FE01D1CFC93049F440E0AF
:1009E00050E060E07FE382E090E00E944301C6CFE8
:1009F000CA3021F640E050E060E07FE382E090E022
:100A00000E94FE01BBCF5058BB27AA270E941B059E
:100A10000C9465060E94570638F00E945E0620F08E
:100A200039F49F3F19F426F40C9454060EF4E09523
:100A3000E7FB0C944E06E92F0E94760658F3BA178E
:100A4000620773078407950720F079F4A6F50C94E4
:100A500098060EF4E0950B2EBA2FA02D0B01B901CC
:100A600090010C01CA01A0011124FF27591B99F024
:100A7000593F50F4503E68F11A16F040A22F232F30
:100A8000342F4427585FF3CF469537952795A79580
:100A9000F0405395C9F77EF41F16BA0B620B730B27
:100AA000840BBAF09150A1F0FF0FBB1F661F771F98
:100AB000881FC2F70EC0BA0F621F731F841F48F44D
:100AC000879577956795B795F7959E3F08F0B0CFD6
:100AD0009395880F08F09927EE0F979587950895BD
:100AE0000E9484050C9465060E945E0658F00E94E0
:100AF000570640F029F45F3F29F00C944E0651113F
:100B00000C9499060C9454060E94760668F3992377
:100B1000B1F3552391F3951B550BBB27AA276217F9
:100B20007307840738F09F5F5F4F220F331F441F06
:100B3000AA1FA9F335D00E2E3AF0E0E832D091503A
:100B40005040E695001CCAF72BD0FE2F29D0660F27
:100B5000771F881FBB1F261737074807AB07B0E86A
:100B600009F0BB0B802DBF01FF2793585F4F3AF070
:100B70009E3F510578F00C944E060C9499065F3F09
:100B8000E4F3983ED4F3869577956795B795F795F6
:100B90009F5FC9F7880F911D9695879597F90895DE
:100BA000E1E0660F771F881FBB1F6217730784077A
:100BB000BA0720F0621B730B840BBA0BEE1F88F789
:100BC000E09508950E947E0688F09F5798F0B92F0F
:100BD0009927B751B0F0E1F0660F771F881F991F72
:100BE0001AF0BA95C9F714C0B13091F00E94980676
:100BF000B1E008950C949806672F782F8827B85F86
:100C000039F0B93FCCF3869577956795B395D9F7C9
:100C10003EF490958095709561957F4F8F4F9F4FD3
:100C20000895E89409C097FB3EF4909580957095DF
:100C300061957F4F8F4F9F4F9923A9F0F92F96E928
:100C4000BB279395F695879577956795B795F1119D
:100C5000F8CFFAF4BB0F11F460FF1BC06F5F7F4F3A
:100C60008F4F9F4F16C0882311F096E911C077234C
:100C700021F09EE8872F762F05C0662371F096E855
:100C8000862F70E060E02AF09A95660F771F881F24
:100C9000DAF7880F9695879597F9089597F99F67E2
:100CA00080E870E060E008959FEF80EC08950024F4
:100CB0000A941616170618060906089500240A94C1
:100CC00012161306140605060895092E0394000C47
:100CD00011F4882352F0BB0F40F4BF2B11F460FFD6
:100CE00004C06F5F7F4F8F4F9F4F089557FD9058FF
:100CF000440F551F59F05F3F71F04795880F97FBE0
:100D0000991F61F09F3F79F0879508951216130699
:100D10001406551FF2CF4695F1DF08C016161706C8
:100D20001806991FF1CF86957105610508940895FD
:100D3000E894BB2766277727CB0197F908950E948F
:100D4000B2060C9465060E94570638F00E945E06B3
:100D500020F0952311F00C944E060C9454061124A7
:100D60000C9499060E94760670F3959FC1F3950F37
:100D700050E0551F629FF001729FBB27F00DB11D1F
:100D8000639FAA27F00DB11DAA1F649F6627B00DAF
:100D9000A11D661F829F2227B00DA11D621F739F98
:100DA000B00DA11D621F839FA00D611D221F749FA6
:100DB0003327A00D611D231F849F600D211D822FED
:100DC000762F6A2F11249F5750409AF0F1F0882314
:100DD0004AF0EE0FFF1FBB1F661F771F881F915041
:100DE0005040A9F79E3F510580F00C944E060C949C
:100DF00099065F3FE4F3983ED4F38695779567951F
:100E0000B795F795E7959F5FC1F7FE2B880F911D6A
:100E10009695879597F9089597FB072E16F40094F9
:100E200007D077FD09D00E94200707FC05D03EF4CB
:100E3000909581959F4F0895709561957F4F089586
:100E4000AA1BBB1B51E107C0AA1FBB1FA617B707F0
:100E500010F0A61BB70B881F991F5A95A9F780950C
:0C0E60009095BC01CD010895F894FFCFDF
:100E6C00313A486F742043726F73732042756E73FE
:0A0E7C0000323A41424327730000A0
:00000001FF
