:100000000C942A000C943F000C943F000C943F0089
:100010000C943F000C943F000C943F000C943F0064
:100020000C943F000C943F000C943F000C943F0054
:100030000C943F000C943F000C943F000C943F0044
:100040000C943F000C943F000C943F000C943F0034
:100050000C943F0011241FBECFE5D8E0DEBFCDBF1A
:1000600010E0A0E6B0E0E8E3F2E002C005900D92F7
:10007000AE3AB107D9F70E94EC000C941A010C9427
:1000800000009C0182E083BF86EF08C082BF98B762
:10009000916098BFA89508B600FEFDCF21503109A8
:1000A000A8F713BE0895EF92FF920F931F93CF937B
:1000B000DF931616170684F47B018C01C0E0D0E0B4
:1000C000C39AC8010E944100C398C8010E94410020
:1000D0002196CE15DF05A1F7DF91CF911F910F91EA
:1000E000FF90EF900895EF92FF920F931F93CF939D
:1000F000DF93161617068CF47B01C82FD92F00E06A
:1001000010E06A817B81888199810E9453000F5F92
:100110001F4F24960E151F05A1F7DF91CF911F9158
:100120000F91FF90EF900895662311F0C09A01C0DF
:10013000C098C19882BB8FEF81BBC29A00000000BB
:100140000000C2980895C098C19A11BA90B3C29A9B
:1001500000000000000011BA90B3C29899239CF3EC
:100160000E9494000895B89AB99ABA9A80E190E0F2
:100170000E94410060E080E30E94940085E090E0EE
:100180000E94410060E080E30E94940081E090E0E2
:100190000E94410060E08CE30E94A30060E08CE0DC
:1001A0000E94A30060E086E00E94A30060E081E07E
:1001B0000E94A3000895CF93DF93EC012196FC01E8
:1001C0008081882331F061E00E94A3008991811130
:1001D000FACFDF91CF910895CF93DF93CDB7DEB7FC
:1001E000C454D1090FB6F894DEBF0FBECDBF88E06E
:1001F00087BB0E94B30084EA90E00E94DB0084E4A5
:10020000E0E6F0E0DE01119601900D928A95E1F7AB
:1002100061E170E0CE0101960E94730080E090E001
:10022000CC5BDF4F0FB6F894DEBF0FBECDBFDF91C2
:08023000CF910895F894FFCF6F
:100238006500ED017100B8017F0010036500ED0154
:100248007100B8017F0010037F00C4007F00C40064
:100258007F00C4007F00C4007100DC007100DC0076
:100268007100DC007100DC006500ED017100B8016F
:0E0278007F00100350524F4A4543542033007C
:00000001FF
