S01D000050726F6A656374335F4D757369632D506C617965722E7372656303
S11300000C942A000C943F000C943F000C943F0085
S11300100C943F000C943F000C943F000C943F0060
S11300200C943F000C943F000C943F000C943F0050
S11300300C943F000C943F000C943F000C943F0040
S11300400C943F000C943F000C943F000C943F0030
S11300500C943F0011241FBECFE5D8E0DEBFCDBF16
S113006010E0A0E6B0E0E0E8F1E002C005900D92F7
S1130070AA36B107D9F70E94AB000C94BE000C94C9
S113008000009C0182E083BF86EF08C082BF98B75E
S1130090916098BFA89508B600FEFDCF21503109A4
S11300A0A8F713BE0895662311F0C09A01C0C09842
S11300B0C19882BB8FEF81BBC29A00000000000090
S11300C0C2980895C098C19A11BA90B3C29A000018
S11300D00000000011BA90B3C29899239CF30E94C7
S11300E053000895B89AB99ABA9A80E190E00E94B0
S11300F0410060E080E30E94530085E090E00E94AC
S1130100410060E080E30E94530081E090E00E949F
S1130110410060E08CE30E94620060E08CE00E9499
S1130120620060E086E00E94620060E081E00E947C
S113013062000895CF93DF93EC012196FC01808146
S1130140882331F061E00E94620089918111FACF25
S1130150DF91CF91089588E087BB0E94720080E60A
S113016090E00E949A00C39A81E090E00E944100CE
S1130170C39881EE90E00E944100F5CFF894FFCF40
S10D018050524F4A45435420330007
S9030000FC
